{
  "_format": "hh-sol-artifact-1",
  "contractName": "dataFeeds",
  "sourceName": "contracts/dataFeeds.sol",
  "abi": [
    {
      "inputs": [],
      "stateMutability": "nonpayable",
      "type": "constructor"
    },
    {
      "inputs": [
        {
          "internalType": "address",
          "name": "tokenAddress",
          "type": "address"
        }
      ],
      "name": "getTokenPrice",
      "outputs": [
        {
          "internalType": "uint256",
          "name": "",
          "type": "uint256"
        }
      ],
      "stateMutability": "view",
      "type": "function"
    },
    {
      "inputs": [],
      "name": "owner",
      "outputs": [
        {
          "internalType": "address",
          "name": "",
          "type": "address"
        }
      ],
      "stateMutability": "view",
      "type": "function"
    },
    {
      "inputs": [
        {
          "internalType": "address[]",
          "name": "tokenAddresses",
          "type": "address[]"
        },
        {
          "internalType": "uint256[]",
          "name": "prices",
          "type": "uint256[]"
        }
      ],
      "name": "setMultipleTokenPrices",
      "outputs": [],
      "stateMutability": "nonpayable",
      "type": "function"
    },
    {
      "inputs": [
        {
          "internalType": "address",
          "name": "",
          "type": "address"
        }
      ],
      "name": "tokenPrices",
      "outputs": [
        {
          "internalType": "uint256",
          "name": "",
          "type": "uint256"
        }
      ],
      "stateMutability": "view",
      "type": "function"
    }
  ],
  "bytecode": "0x608060405234801561001057600080fd5b50600080546001600160a01b0319163317905561047d806100326000396000f3fe608060405234801561001057600080fd5b506004361061004c5760003560e01c8063204120bc146100515780638da5cb5b14610084578063d02641a0146100af578063fe0992d0146100d8575b600080fd5b61007161005f366004610252565b60016020526000908152604090205481565b6040519081526020015b60405180910390f35b600054610097906001600160a01b031681565b6040516001600160a01b03909116815260200161007b565b6100716100bd366004610252565b6001600160a01b031660009081526001602052604090205490565b6100eb6100e636600461034a565b6100ed565b005b6000546001600160a01b031633146101655760405162461bcd60e51b815260206004820152603060248201527f4f6e6c792074686520636f6e7472616374206f776e65722063616e207065726660448201526f37b936903a3434b99030b1ba34b7b71760811b60648201526084015b60405180910390fd5b80518251146101b65760405162461bcd60e51b815260206004820152601860248201527f4172726179206c656e67746873206d757374206d617463680000000000000000604482015260640161015c565b60005b8251811015610231578181815181106101d4576101d461040a565b6020026020010151600160008584815181106101f2576101f261040a565b60200260200101516001600160a01b03166001600160a01b0316815260200190815260200160002081905550808061022990610420565b9150506101b9565b505050565b80356001600160a01b038116811461024d57600080fd5b919050565b60006020828403121561026457600080fd5b61026d82610236565b9392505050565b634e487b7160e01b600052604160045260246000fd5b604051601f8201601f1916810167ffffffffffffffff811182821017156102b3576102b3610274565b604052919050565b600067ffffffffffffffff8211156102d5576102d5610274565b5060051b60200190565b600082601f8301126102f057600080fd5b81356020610305610300836102bb565b61028a565b82815260059290921b8401810191818101908684111561032457600080fd5b8286015b8481101561033f5780358352918301918301610328565b509695505050505050565b6000806040838503121561035d57600080fd5b823567ffffffffffffffff8082111561037557600080fd5b818501915085601f83011261038957600080fd5b81356020610399610300836102bb565b82815260059290921b840181019181810190898411156103b857600080fd5b948201945b838610156103dd576103ce86610236565b825294820194908201906103bd565b965050860135925050808211156103f357600080fd5b50610400858286016102df565b9150509250929050565b634e487b7160e01b600052603260045260246000fd5b60006001820161044057634e487b7160e01b600052601160045260246000fd5b506001019056fea2646970667358221220eadd72a3f9f06a894dc3902ba9645fb3f4f4b4bcc076b708d65b2ffb1df38e2c64736f6c63430008110033",
  "linkReferences": {},
  "deployedLinkReferences": {}
}