{
  "_format": "hh-sol-artifact-1",
  "contractName": "dataFeeds",
  "sourceName": "contracts/dataFeeds.sol",
  "abi": [
    {
      "inputs": [],
      "stateMutability": "nonpayable",
      "type": "constructor"
    },
    {
      "inputs": [
        {
          "internalType": "address",
          "name": "tokenIn",
          "type": "address"
        },
        {
          "internalType": "address",
          "name": "tokenOut",
          "type": "address"
        },
        {
          "internalType": "uint256",
          "name": "amountIn",
          "type": "uint256"
        }
      ],
      "name": "calcuMul",
      "outputs": [
        {
          "internalType": "uint256",
          "name": "Mul",
          "type": "uint256"
        }
      ],
      "stateMutability": "view",
      "type": "function"
    },
    {
      "inputs": [
        {
          "internalType": "address",
          "name": "tokenAddress",
          "type": "address"
        }
      ],
      "name": "getTokenPrice",
      "outputs": [
        {
          "internalType": "uint256",
          "name": "",
          "type": "uint256"
        }
      ],
      "stateMutability": "view",
      "type": "function"
    },
    {
      "inputs": [],
      "name": "owner",
      "outputs": [
        {
          "internalType": "address",
          "name": "",
          "type": "address"
        }
      ],
      "stateMutability": "view",
      "type": "function"
    },
    {
      "inputs": [
        {
          "internalType": "address[]",
          "name": "tokenAddresses",
          "type": "address[]"
        },
        {
          "internalType": "uint256[]",
          "name": "prices",
          "type": "uint256[]"
        }
      ],
      "name": "setMultipleTokenPrices",
      "outputs": [],
      "stateMutability": "nonpayable",
      "type": "function"
    },
    {
      "inputs": [
        {
          "internalType": "address",
          "name": "",
          "type": "address"
        }
      ],
      "name": "tokenPrices",
      "outputs": [
        {
          "internalType": "uint256",
          "name": "",
          "type": "uint256"
        }
      ],
      "stateMutability": "view",
      "type": "function"
    }
  ],
  "bytecode": "0x608060405234801561001057600080fd5b506001600081905580546001600160a01b03191633179055610563806100376000396000f3fe608060405234801561001057600080fd5b50600436106100575760003560e01c8063204120bc1461005c5780638da5cb5b1461008f578063b3712d56146100ba578063d02641a0146100cd578063fe0992d0146100f6575b600080fd5b61007c61006a3660046102b5565b60026020526000908152604090205481565b6040519081526020015b60405180910390f35b6001546100a2906001600160a01b031681565b6040516001600160a01b039091168152602001610086565b61007c6100c83660046102d7565b61010b565b61007c6100db3660046102b5565b6001600160a01b031660009081526002602052604090205490565b6101096101043660046103e9565b610150565b005b6001600160a01b038084166000908152600260205260408082205492851682528120549091908061013c85846104bf565b61014691906104dc565b9695505050505050565b6001546001600160a01b031633146101c85760405162461bcd60e51b815260206004820152603060248201527f4f6e6c792074686520636f6e7472616374206f776e65722063616e207065726660448201526f37b936903a3434b99030b1ba34b7b71760811b60648201526084015b60405180910390fd5b80518251146102195760405162461bcd60e51b815260206004820152601860248201527f4172726179206c656e67746873206d757374206d61746368000000000000000060448201526064016101bf565b60005b825181101561029457818181518110610237576102376104fe565b602002602001015160026000858481518110610255576102556104fe565b60200260200101516001600160a01b03166001600160a01b0316815260200190815260200160002081905550808061028c90610514565b91505061021c565b505050565b80356001600160a01b03811681146102b057600080fd5b919050565b6000602082840312156102c757600080fd5b6102d082610299565b9392505050565b6000806000606084860312156102ec57600080fd5b6102f584610299565b925061030360208501610299565b9150604084013590509250925092565b634e487b7160e01b600052604160045260246000fd5b604051601f8201601f1916810167ffffffffffffffff8111828210171561035257610352610313565b604052919050565b600067ffffffffffffffff82111561037457610374610313565b5060051b60200190565b600082601f83011261038f57600080fd5b813560206103a461039f8361035a565b610329565b82815260059290921b840181019181810190868411156103c357600080fd5b8286015b848110156103de57803583529183019183016103c7565b509695505050505050565b600080604083850312156103fc57600080fd5b823567ffffffffffffffff8082111561041457600080fd5b818501915085601f83011261042857600080fd5b8135602061043861039f8361035a565b82815260059290921b8401810191818101908984111561045757600080fd5b948201945b8386101561047c5761046d86610299565b8252948201949082019061045c565b9650508601359250508082111561049257600080fd5b5061049f8582860161037e565b9150509250929050565b634e487b7160e01b600052601160045260246000fd5b80820281158282048414176104d6576104d66104a9565b92915050565b6000826104f957634e487b7160e01b600052601260045260246000fd5b500490565b634e487b7160e01b600052603260045260246000fd5b600060018201610526576105266104a9565b506001019056fea26469706673582212208a6e7857259d0c76a2a9122964d88e8d301aee821d7e424e627735d16d24fdc664736f6c63430008110033",
  "linkReferences": {},
  "deployedLinkReferences": {}
}