{
  "_format": "hh-sol-artifact-1",
  "contractName": "SingleSwap",
  "sourceName": "contracts/uniswap-rooter.sol",
  "abi": [
    {
      "inputs": [],
      "stateMutability": "nonpayable",
      "type": "constructor"
    },
    {
      "inputs": [],
      "name": "LINK",
      "outputs": [
        {
          "internalType": "address",
          "name": "",
          "type": "address"
        }
      ],
      "stateMutability": "view",
      "type": "function"
    },
    {
      "inputs": [],
      "name": "LinkToken",
      "outputs": [
        {
          "internalType": "contract IERC20",
          "name": "",
          "type": "address"
        }
      ],
      "stateMutability": "view",
      "type": "function"
    },
    {
      "inputs": [],
      "name": "WETH",
      "outputs": [
        {
          "internalType": "address",
          "name": "",
          "type": "address"
        }
      ],
      "stateMutability": "view",
      "type": "function"
    },
    {
      "inputs": [],
      "name": "WethToken",
      "outputs": [
        {
          "internalType": "contract IERC20",
          "name": "",
          "type": "address"
        }
      ],
      "stateMutability": "view",
      "type": "function"
    },
    {
      "inputs": [],
      "name": "poolFee",
      "outputs": [
        {
          "internalType": "uint24",
          "name": "",
          "type": "uint24"
        }
      ],
      "stateMutability": "view",
      "type": "function"
    },
    {
      "inputs": [],
      "name": "routerAddress",
      "outputs": [
        {
          "internalType": "address",
          "name": "",
          "type": "address"
        }
      ],
      "stateMutability": "view",
      "type": "function"
    },
    {
      "inputs": [
        {
          "internalType": "address",
          "name": "_tokenIn",
          "type": "address"
        },
        {
          "internalType": "address",
          "name": "_tokenOut",
          "type": "address"
        },
        {
          "internalType": "uint256",
          "name": "_amountIn",
          "type": "uint256"
        }
      ],
      "name": "swapExactInputSingle",
      "outputs": [
        {
          "internalType": "uint256",
          "name": "amountOut",
          "type": "uint256"
        }
      ],
      "stateMutability": "nonpayable",
      "type": "function"
    },
    {
      "inputs": [
        {
          "internalType": "address",
          "name": "_tokenIn",
          "type": "address"
        },
        {
          "internalType": "uint256",
          "name": "_amountOut",
          "type": "uint256"
        },
        {
          "internalType": "uint256",
          "name": "_amountInMaximum",
          "type": "uint256"
        }
      ],
      "name": "swapExactOutputSingle",
      "outputs": [
        {
          "internalType": "uint256",
          "name": "amountIn",
          "type": "uint256"
        }
      ],
      "stateMutability": "nonpayable",
      "type": "function"
    },
    {
      "inputs": [],
      "name": "swapRouter",
      "outputs": [
        {
          "internalType": "contract ISwapRouter",
          "name": "",
          "type": "address"
        }
      ],
      "stateMutability": "view",
      "type": "function"
    }
  ],
  "bytecode": "0x60a060405273e592427a0aece92de3edee1f18e0157c05861564608052600080546001600160a01b031990811673326c977e6efc84e512bb9c30f76e30c160ed06fb179091556001805490911673b4fbf271143f4fbf7b91a5ded31805e42b2208d617905534801561007057600080fd5b506080516107db6100af6000396000818161014e015281816101bb015281816102ae0152818161034f015281816104f101526105c601526107db6000f3fe608060405234801561001057600080fd5b50600436106100935760003560e01c80634f8e2fdf116100665780634f8e2fdf1461011b578063ad5c46481461012e578063c31c9c0714610149578063c9736a6d14610170578063ceb920121461019157600080fd5b80630527a4c914610098578063089fe6aa146100c85780631b6b6d23146100e55780633268cc5614610100575b600080fd5b6001546100ab906001600160a01b031681565b6040516001600160a01b0390911681526020015b60405180910390f35b6100d1610bb881565b60405162ffffff90911681526020016100bf565b6100ab73326c977e6efc84e512bb9c30f76e30c160ed06fb81565b6100ab73e592427a0aece92de3edee1f18e0157c0586156481565b6000546100ab906001600160a01b031681565b6100ab73b4fbf271143f4fbf7b91a5ded31805e42b2208d681565b6100ab7f000000000000000000000000000000000000000000000000000000000000000081565b61018361017e366004610663565b6101a4565b6040519081526020016100bf565b61018361019f366004610696565b61045f565b60405163095ea7b360e01b81526001600160a01b037f000000000000000000000000000000000000000000000000000000000000000081166004830152602482018390526000919085169063095ea7b3906044016020604051808303816000875af1158015610217573d6000803e3d6000fd5b505050506040513d601f19601f8201168201806040525081019061023b91906106d2565b50604080516101008101825273326c977e6efc84e512bb9c30f76e30c160ed06fb815273b4fbf271143f4fbf7b91a5ded31805e42b2208d66020820152610bb88183015230606082015242608082015260a0810185905260c08101849052600060e08201529051631b67c43360e31b81527f00000000000000000000000000000000000000000000000000000000000000006001600160a01b03169063db3e2198906102eb9084906004016106fb565b6020604051808303816000875af115801561030a573d6000803e3d6000fd5b505050506040513d601f19601f8201168201806040525081019061032e919061076b565b9150828210156104575760405163095ea7b360e01b81526001600160a01b037f0000000000000000000000000000000000000000000000000000000000000000811660048301526000602483015286169063095ea7b3906044016020604051808303816000875af11580156103a7573d6000803e3d6000fd5b505050506040513d601f19601f820116820180604052508101906103cb91906106d2565b506001600160a01b03851663a9059cbb306103e68587610784565b6040516001600160e01b031960e085901b1681526001600160a01b03909216600483015260248201526044016020604051808303816000875af1158015610431573d6000803e3d6000fd5b505050506040513d601f19601f8201168201806040525081019061045591906106d2565b505b509392505050565b6040516323b872dd60e01b8152336004820152306024820152604481018290526000906001600160a01b038516906323b872dd906064016020604051808303816000875af11580156104b5573d6000803e3d6000fd5b505050506040513d601f19601f820116820180604052508101906104d991906106d2565b5060405163095ea7b360e01b81526001600160a01b037f0000000000000000000000000000000000000000000000000000000000000000811660048301526024820184905285169063095ea7b3906044016020604051808303816000875af1158015610549573d6000803e3d6000fd5b505050506040513d601f19601f8201168201806040525081019061056d91906106d2565b5060408051610100810182526001600160a01b0380871682528581166020830152610bb88284015233606083015242608083015260a08201859052600060c0830181905260e0830152915163414bf38960e01b815290917f0000000000000000000000000000000000000000000000000000000000000000169063414bf389906105fb9084906004016106fb565b6020604051808303816000875af115801561061a573d6000803e3d6000fd5b505050506040513d601f19601f8201168201806040525081019061063e919061076b565b95945050505050565b80356001600160a01b038116811461065e57600080fd5b919050565b60008060006060848603121561067857600080fd5b61068184610647565b95602085013595506040909401359392505050565b6000806000606084860312156106ab57600080fd5b6106b484610647565b92506106c260208501610647565b9150604084013590509250925092565b6000602082840312156106e457600080fd5b815180151581146106f457600080fd5b9392505050565b6101008101610765828480516001600160a01b03908116835260208083015182169084015260408083015162ffffff16908401526060808301518216908401526080808301519084015260a0828101519084015260c0808301519084015260e09182015116910152565b92915050565b60006020828403121561077d57600080fd5b5051919050565b8181038181111561076557634e487b7160e01b600052601160045260246000fdfea2646970667358221220b3a46f35128d4d84e362a38c713c0a3dc90e042bcb98f278fcccee10275af74864736f6c63430008110033",
  "linkReferences": {},
  "deployedLinkReferences": {}
}